{
  "address": "0x6d8B4da09e3514363395F6e4e3010d0d2DA0bff2",
  "abi": [
    {
      "inputs": [
        {
          "internalType": "address",
          "name": "exampleExternalContractAddress",
          "type": "address"
        }
      ],
      "stateMutability": "nonpayable",
      "type": "constructor"
    },
    {
      "anonymous": false,
      "inputs": [
        {
          "indexed": true,
          "internalType": "address",
          "name": "staker",
          "type": "address"
        },
        {
          "indexed": false,
          "internalType": "uint256",
          "name": "amount",
          "type": "uint256"
        }
      ],
      "name": "Stake",
      "type": "event"
    },
    {
      "inputs": [],
      "name": "THRESHOLD",
      "outputs": [
        {
          "internalType": "uint256",
          "name": "",
          "type": "uint256"
        }
      ],
      "stateMutability": "view",
      "type": "function"
    },
    {
      "inputs": [
        {
          "internalType": "address",
          "name": "",
          "type": "address"
        }
      ],
      "name": "balances",
      "outputs": [
        {
          "internalType": "uint256",
          "name": "",
          "type": "uint256"
        }
      ],
      "stateMutability": "view",
      "type": "function"
    },
    {
      "inputs": [],
      "name": "deadline",
      "outputs": [
        {
          "internalType": "uint256",
          "name": "",
          "type": "uint256"
        }
      ],
      "stateMutability": "view",
      "type": "function"
    },
    {
      "inputs": [],
      "name": "exampleExternalContract",
      "outputs": [
        {
          "internalType": "contract ExampleExternalContract",
          "name": "",
          "type": "address"
        }
      ],
      "stateMutability": "view",
      "type": "function"
    },
    {
      "inputs": [],
      "name": "execute",
      "outputs": [],
      "stateMutability": "nonpayable",
      "type": "function"
    },
    {
      "inputs": [],
      "name": "openForWithdraw",
      "outputs": [
        {
          "internalType": "bool",
          "name": "",
          "type": "bool"
        }
      ],
      "stateMutability": "view",
      "type": "function"
    },
    {
      "inputs": [],
      "name": "stake",
      "outputs": [],
      "stateMutability": "payable",
      "type": "function"
    },
    {
      "inputs": [],
      "name": "timeLeft",
      "outputs": [
        {
          "internalType": "uint256",
          "name": "",
          "type": "uint256"
        }
      ],
      "stateMutability": "view",
      "type": "function"
    },
    {
      "inputs": [],
      "name": "withdraw",
      "outputs": [],
      "stateMutability": "nonpayable",
      "type": "function"
    },
    {
      "stateMutability": "payable",
      "type": "receive"
    }
  ],
  "transactionHash": "0x4991ca7e8fa2b4d68a2b54a3f5e29dfbfc25733dfb6f918a42f0db8ccf7b9483",
  "args": [
    "0x35f383d4864cD70f7cE9E4a666E04c5be42e03aE"
  ],
  "numDeployments": 1,
  "solcInputHash": "2e393c505d7aabdc5ab3ccd52011dec2",
  "bytecode": "0x608060405234801561001057600080fd5b5060405161087e38038061087e83398101604081905261002f91610065565b60028054610100600160a81b0319166101006001600160a01b0384160217905561005c426236ee80610095565b600055506100bc565b60006020828403121561007757600080fd5b81516001600160a01b038116811461008e57600080fd5b9392505050565b808201808211156100b657634e487b7160e01b600052601160045260246000fd5b92915050565b6107b3806100cb6000396000f3fe60806040526004361061008a5760003560e01c80633ccfd60b116100595780633ccfd60b146101115780636146195414610126578063785ffb371461013b5780639876a643146101575780639f75f2271461018157600080fd5b80631300a6d11461009e57806327e235e3146100c657806329dcb0cf146100f35780633a4b66f11461010957600080fd5b36610099576100976101be565b005b600080fd5b3480156100aa57600080fd5b506100b361035c565b6040519081526020015b60405180910390f35b3480156100d257600080fd5b506100b36100e13660046106be565b60016020526000908152604090205481565b3480156100ff57600080fd5b506100b360005481565b6100976101be565b34801561011d57600080fd5b5061009761037f565b34801561013257600080fd5b5061009761054f565b34801561014757600080fd5b506100b3670de0b6b3a764000081565b34801561016357600080fd5b506002546101719060ff1681565b60405190151581526020016100bd565b34801561018d57600080fd5b506002546101a69061010090046001600160a01b031681565b6040516001600160a01b0390911681526020016100bd565b600260019054906101000a90046001600160a01b03166001600160a01b0316639d9a7fe96040518163ffffffff1660e01b8152600401602060405180830381865afa158015610211573d6000803e3d6000fd5b505050506040513d601f19601f8201168201806040525081019061023591906106ee565b1561025b5760405162461bcd60e51b815260040161025290610710565b60405180910390fd5b600034116102ba5760405162461bcd60e51b815260206004820152602660248201527f5374616b6520616d6f756e74206d7573742062652067726561746572207468616044820152656e207a65726f60d01b6064820152608401610252565b60005442106103015760405162461bcd60e51b8152602060048201526013602482015272111958591b1a5b99481a185cc81c185cdcd959606a1b6044820152606401610252565b3360009081526001602052604081208054349290610320908490610751565b909155505060405134815233907febedb8b3c678666e7f36970bc8f57abf6d8fa2e828c0da91ea5b75bf68ed101a9060200160405180910390a2565b60008054421061036c5750600090565b4260005461037a919061076a565b905090565b600260019054906101000a90046001600160a01b03166001600160a01b0316639d9a7fe96040518163ffffffff1660e01b8152600401602060405180830381865afa1580156103d2573d6000803e3d6000fd5b505050506040513d601f19601f820116820180604052508101906103f691906106ee565b156104135760405162461bcd60e51b815260040161025290610710565b60025460ff1661045c5760405162461bcd60e51b81526020600482015260146024820152732bb4ba34323930bbb0b639903737ba1037b832b760611b6044820152606401610252565b33600090815260016020526040902054806104b25760405162461bcd60e51b81526020600482015260166024820152754e6f2062616c616e636520746f20776974686472617760501b6044820152606401610252565b336000818152600160205260408082208290555190919083908381818185875af1925050503d8060008114610503576040519150601f19603f3d011682016040523d82523d6000602084013e610508565b606091505b505090508061054b5760405162461bcd60e51b815260206004820152600f60248201526e15da5d1a191c985dc819985a5b1959608a1b6044820152606401610252565b5050565b600260019054906101000a90046001600160a01b03166001600160a01b0316639d9a7fe96040518163ffffffff1660e01b8152600401602060405180830381865afa1580156105a2573d6000803e3d6000fd5b505050506040513d601f19601f820116820180604052508101906105c691906106ee565b156105e35760405162461bcd60e51b815260040161025290610710565b6000544210156106355760405162461bcd60e51b815260206004820152601860248201527f446561646c696e65206e6f7420796574207265616368656400000000000000006044820152606401610252565b670de0b6b3a764000047106106af57600260019054906101000a90046001600160a01b03166001600160a01b031663522e1177476040518263ffffffff1660e01b81526004016000604051808303818588803b15801561069457600080fd5b505af11580156106a8573d6000803e3d6000fd5b5050505050565b6002805460ff19166001179055565b6000602082840312156106d057600080fd5b81356001600160a01b03811681146106e757600080fd5b9392505050565b60006020828403121561070057600080fd5b815180151581146106e757600080fd5b602080825260119082015270105b1c9958591e4818dbdb5c1b195d1959607a1b604082015260600190565b634e487b7160e01b600052601160045260246000fd5b808201808211156107645761076461073b565b92915050565b818103818111156107645761076461073b56fea26469706673582212202beece6b144a7eda0573a31e5d7f510014e51b49f5116a176167bf802f5a3df064736f6c63430008140033",
  "devdoc": {
    "kind": "dev",
    "methods": {},
    "version": 1
  },
  "userdoc": {
    "kind": "user",
    "methods": {},
    "version": 1
  },
  "storageLayout": {
    "storage": [
      {
        "astId": 27,
        "contract": "contracts/Staker.sol:Staker",
        "label": "deadline",
        "offset": 0,
        "slot": "0",
        "type": "t_uint256"
      },
      {
        "astId": 31,
        "contract": "contracts/Staker.sol:Staker",
        "label": "balances",
        "offset": 0,
        "slot": "1",
        "type": "t_mapping(t_address,t_uint256)"
      },
      {
        "astId": 33,
        "contract": "contracts/Staker.sol:Staker",
        "label": "openForWithdraw",
        "offset": 0,
        "slot": "2",
        "type": "t_bool"
      },
      {
        "astId": 36,
        "contract": "contracts/Staker.sol:Staker",
        "label": "exampleExternalContract",
        "offset": 1,
        "slot": "2",
        "type": "t_contract(ExampleExternalContract)12"
      }
    ],
    "types": {
      "t_address": {
        "encoding": "inplace",
        "label": "address",
        "numberOfBytes": "20"
      },
      "t_bool": {
        "encoding": "inplace",
        "label": "bool",
        "numberOfBytes": "1"
      },
      "t_contract(ExampleExternalContract)12": {
        "encoding": "inplace",
        "label": "contract ExampleExternalContract",
        "numberOfBytes": "20"
      },
      "t_mapping(t_address,t_uint256)": {
        "encoding": "mapping",
        "key": "t_address",
        "label": "mapping(address => uint256)",
        "numberOfBytes": "32",
        "value": "t_uint256"
      },
      "t_uint256": {
        "encoding": "inplace",
        "label": "uint256",
        "numberOfBytes": "32"
      }
    }
  }
}